:020000040800F2
:10000000E848001061020008FB340008BF31000816
:10001000F9340008AD0A000841380008000000006B
:10002000000000000000000000000000A101000826
:100030007F0C000800000000FD010008FD340008EE
:100040007B0200087B0200087B0200087B0200089C
:100050007B0200087B0200087B0200087B0200088C
:100060007B0200087B0200087B0200087B0200087C
:100070007B0200087B0200087B0200087B0200086C
:100080007B0200087B0200087B0200087B0200085C
:10009000B10A00087B0200087B0200087B0200080E
:1000A0007B020008E13500087B0200087B020008A3
:1000B0007B0200087B0200087B0200087B0200082C
:1000C0007B0200087B0200087B0200087B0200081C
:1000D0007B0200087B0200087B0200087B0200080C
:1000E0007B0200087B0200087B0200087B020008FC
:1000F0007B0200087B0200087B0200087B020008EC
:100100007B0200087B0200087B0200087B020008DB
:100110007B0200087B0200087B0200087B020008CB
:100120007B0200087B0200087B0200087B020008BB
:100130007B020008950D00087B0200087B02000886
:100140007B0200087B0200087B0200087B0200089B
:100150007B0200087B0200087B0200087B0200088B
:100160007B0200087B0200087B0200087B0200087B
:100170007B0200087B0200087B02000800000000F0
:100180007B0200087B020008DFF810D000F0D4FBEF
:1001900000480047ED810008AFF30080E8480010F8
:1001A0002C4B19680868B0E8F04F80F30988BFF35A
:1001B0006F8F4FF0000080F311887047000000003F
:1001C00008480068006880F308884FF0000080F35A
:1001D000148862B661B6BFF34F8FBFF36F8F00DF35
:1001E00000BF00BF08ED00E0DFF80C00016841F43B
:1001F00070010160704700BF88ED00E0EFF30980F7
:10020000BFF36F8F134B1A681EF0100F08BF20ED5D
:10021000108A20E9F04F106009B44FF0500080F3CD
:100220001188BFF34F8FBFF36F8F15F0A9FC4FF00C
:10023000000080F3118809BC19680868B0E8F04F25
:100240001EF0100F08BFB0EC108A80F30988BFF3CE
:100250006F8F704734000010EFF305807047000087
:100260000648804706480047FEE7FEE7FEE7FEE750
:10027000FEE7FEE7FEE7FEE7FEE7FEE7C53500081E
:10028000890100082DE9F05F0546002092469B4653
:1002900088460646814640241BE02846414647469C
:1002A000224600F031F953465A46C01A914110D304
:1002B00011461846224600F018F92D1A67EB01087E
:1002C0004F4622460120002100F00FF917EB0009EC
:1002D0004E41201EA4F10104DFDC484631462A4687
:1002E0004346BDE8F09F0000004870474C6F01088E
:1002F0000649074A0868504343F23902104408602F
:10030000400870470149086070470000080100106C
:100310006D4EC64110B5431A934209D2831888180E
:1003200003E010F8011D03F8011D521EF9D210BDA3
:1003300040EA01039B0703D009E008C9121F08C067
:10034000042AFAD203E011F8013B00F8013B521EE7
:10035000F9D210BDD2B201E000F8012B491EFBD248
:1003600070470022F6E710B513460A4604461946C0
:10037000FFF7F0FF204610BD421E12F8013F002B90
:10038000FBD111F8013B02F8013B002BF9D170477A
:1003900030B505462A460B4612F8010B13F8014BFF
:1003A00008B1A042F8D01CB1002802D06D1CF1E7C2
:1003B000284630BD10B5044604E00B7800F8013B38
:1003C00003B1491C521EF8D2204610BDCAB2401ECD
:1003D00010F8011F8A4202D00029F9D1002070478D
:1003E000421C10F8011B0029FBD1801A704730B560
:1003F00004460020034600E05B1C934203D2E05C0D
:10040000CD5C401BF8D030BD10B5044600E0401C68
:100410000378002BFBD100E0401C521E04D311F8DE
:10042000013B0370002BF7D100210170204610BD65
:1004300030B505460020034600E05B1C934205D220
:10044000EC5CC85C201A01D1002CF6D130BD2DE93E
:10045000F04791460F4680460446002614F8015B9B
:100460002DB1FFF741FF0068405DC007F6D12B2D8D
:1004700002D02D2D18D0641E4A463946204600F081
:1004800053F827B13968A14201D1C7F8008071053E
:100490004FF002040BD54042002803DD03F0F6F9CB
:1004A0000460A007BDE8F08746F48066E4E7002812
:1004B000F8DA03F0EBF904606FF00040F2E730B5D2
:1004C0000B46014600202022012409E021FA02F512
:1004D0009D4205D303FA02F5491B04FA02F52844AC
:1004E000151EA2F10102F1DC30BD202A04DB203A06
:1004F00000FA02F1002070479140C2F1200320FA77
:1005000003F3194390407047202A04DB203A21FA74
:1005100002F00021704721FA02F3D040C2F120021C
:1005200091400843194670472DE9F05F82460078F4
:10053000002715468B460AF10104B946302801D040
:100540009DB113E014F8010B0127782803D0582837
:1005500001D045B10AE00DB1102D07D100271025BB
:1005600014F8010B02E0082500E00A250026B04639
:100570000EE005FB080005FB06F1012701EB104624
:100580001FFA80F8B6F5803F00D3B94614F8010B86
:10059000294600F0F5F90028EBDABBF1000F05D091
:1005A0000FB1641E00E05446CBF80040B9F1000FD3
:1005B00006D003F06BF902210160C81EBDE8F09F70
:1005C00048EA0640FAE72DE9FE4F804681EA03003B
:1005D000C00F0C46009021F0004123F00045B8EB1D
:1005E0000200A94105D24046214690461C460B46D2
:1005F000024623F00040104347D0270DC7F30A00FE
:10060000C3F30A510290401A019040286BDAC3F3F9
:10061000130040F4801B0098924620B10023D2EBD7
:10062000030A63EB0B0B01985946C0F14002504698
:10063000FFF75BFF06460D4650465946019A00F00B
:100640008DF910EB08006141002487EA115284EA19
:10065000E7731A4340D0009A62B3019A012A4FEA25
:10066000075215DC001B61EB02014FF0004202EA69
:100670000752CDE90042001C41F5801132462B465D
:1006800000F09BF903B0BDE8F08F40462146F9E742
:10069000001B61EB0201001C41F5801300185B4157
:1006A0002018A2F5001747EB030140EAD570B619F0
:1006B0006D4111E06D084FEA360645EAC0754FEA14
:1006C0000752001B61EB0201001C41F58011490833
:1006D0004FEA30000019514132462B4603B0BDE8C5
:1006E000F04F00F05BB90098012240000023D0EBEE
:1006F000020263EBE073009821464FEAE074B8EB26
:10070000000061EB0401E9E783F000435BE781F05F
:10071000004158E72DE9FE4F81EA030404F000444C
:1007200021F0004100944FF0000B23F0004350EA09
:1007300001045ED052EA03045BD0C3F30A54C1F350
:100740000A552C44A4F2F3340194A0FB0254C1F3E3
:10075000130141F48011C3F3130343F4801301FB2D
:10076000024400FB034E840A970A44EA815447EA94
:100770008357A4FB076802958D0A05FB07854FEA9E
:10078000932C04FB0C542705029D4FEA065847EAB8
:100790001637B5EB08056EEB070C870E920E47EA8D
:1007A000811742EA8312A7FB0201B6EB0B0164EB4F
:1007B00000042B0D43EA0C335E1844EB1C50DA4660
:1007C0005146E7FB0201C5F313044FEA0B3343EA3A
:1007D00014534FEA0432019C43EA0603A4F10C04CB
:1007E0000294009CCDE900B400F0E7F803B0BDE846
:1007F000F08F00200146F9E72DE9F04D81EA03046E
:1008000004F0004B21F0004514464FF0000A23F09D
:10081000004150EA050220D054EA01021DD0C5F380
:100820000A570246C5F31303C1F31300C1F30A5676
:1008300040F4801543F48013A7EB0608101BD6463E
:1008400008F2FD3873EB050002D308F1010801E05E
:1008500092185B41B8F1000F03DA00200146BDE8B1
:10086000F08D00204FF48011064684460EE0171BE1
:1008700073EB050705D3121B63EB050306434CEA34
:10088000010C49084FEA300092185B4150EA010719
:10089000EDD152EA030012D082EA040083EA050196
:1008A000084305D0101BAB4106D20122002306E00D
:1008B00000224FF0004302E06FF0010253101AEBE8
:1008C00006004CEB085110EB0A0041EB0B01BDE8B0
:1008D000F04D00F063B8C1F30A52C1F3130140F2C6
:1008E000FF3341F480119A4202DA0020014670473A
:1008F00040F233439A42A2F2334202DC5242FFF703
:1009000003BEFFF7F2BD000030B5041E71F1000414
:1009100004DB4FF00044404264EB0101141E73F10C
:10092000000405DB1C464FF00043524263EB040316
:10093000994208BF904230BD064C074D06E0E06882
:1009400040F0010394E8070098471034AC42F6D316
:10095000FFF71EFCD071010810720108202A06DB87
:10096000CB17203A41FA02F043EAE07306E041FA7D
:1009700002F3D040C2F1200291400843194670476B
:100980003A2800D2303820F02002412A01D3A2F1C7
:100990003700884201D34FF0FF30704710B5141E66
:1009A00073F1000408DA401C41F1000192185B4128
:1009B0001A4301D120F0010010BD2DE9F04D9246FF
:1009C0009B4611B1B1FA81F202E0B0FA80F2203216
:1009D0009046FFF78AFD04460F4640EA0A0041EAC6
:1009E0000B0153465A46084313D0114653EA0100FF
:1009F00019D0C8F140025046FFF786FD05460E4665
:100A0000504659464246FFF770FD084305D0012085
:100A100004E020463946BDE8F08D0020054346EA53
:100A2000E0762C4337430A986305E40AA0EB0800FC
:100A30000022FD0A44EA47540A3002D5002001464C
:100A4000E9E7010510196941DDE908450019694127
:100A5000BDE8F04DA2E770B58C1810F8015B15F0F9
:100A6000070301D110F8013B2A1106D110F8012B20
:100A700003E010F8016B01F8016B5B1EF9D12B0745
:100A800005D40023521E0DD401F8013BFAE710F8FB
:100A9000013BCB1A921C03E013F8015B01F8015BE8
:100AA000521EF9D5A142D8D3002070BDFEE7000048
:100AB000014800F0F3BB00000C01001038B50446FB
:100AC0000020009063696A46012120689847002849
:100AD00002DA6FF0040038BD63696A4601212068BC
:100AE0009847002802DA6FF0040038BD009810F033
:100AF000040F09D063696A460021206898470028DE
:100B000004DA6FF0040038BD012038BD009810F4FD
:100B1000805F09D063696A461021206898470028E1
:100B200014DA6FF0040038BD4FF40451814304D04F
:100B300010F4005F03D0032038BD022038BD10F44C
:100B4000807F01D0042038BD052038BD009810F406
:100B5000807F0CD000F0060104290AD010F0060FA7
:100B600009D0062131EA000007D0052038BD062053
:100B700038BD022038BD032038BD042038BDF8B58B
:100B8000044600200090002600256068002851D10E
:100B9000A06800B180472020206063696A4619215F
:100BA00030469847002802DA6FF0040507E0009805
:100BB00000F01F00B04202D12660002502E0761C42
:100BC0001F2EEAD920681F2801D96FF002051DBB2E
:100BD00023694FF4004200219847002828DB63690D
:100BE0006A4600212068984700281EDBA0698047DC
:100BF0000646009810F4004F1CD0A0698047801B67
:100C0000B0F5FA7F09D863696A46002120689847E1
:100C1000002805DA6FF004050CE06FF0010509E02B
:100C2000009810F4004FE8D104E06FF0040501E0F3
:100C30006FF0030555B9A06980470646A069804753
:100C4000801BB0F5FA6FF9D9012060602846F8BD25
:100C5000002811D0CA687AB18A686AB10A695AB1A3
:100C60000A6882604A68C260CA6842618A68026132
:100C700009698161002070474FF0FF30704770476D
:100C8000F0B4002294464FF0004444F2F855282670
:100C9000016902EB820301EBC301C1F800C0C1F896
:100CA00004C0C1F808C0C1F80CC0C1F820C0C1F828
:100CB00024C00C604D604F6827F000474F6000EB88
:100CC0008207B964032A05D2076906EBC3033B44D4
:100CD000CB6001E00369CB60521C042AD8D3C0F872
:100CE0005CC0C0F860C0C0F868C0C0F86CC0C0F894
:100CF00058C00169006800F58050C160F0BC7047C1
:100D000030B4002294462824C16802EB820301EB30
:100D1000C301C1F800C0C1F804C0C1F808C0C1F8DF
:100D20000CC000EB8205A9610D6845F480150D60CB
:100D3000032A05D2C56804EBC3032B44CB6001E052
:100D4000C368CB600B6843F440030B60521C042A59
:100D5000DAD3C0F828C0C168006800F5805001618E
:100D600030BC704738B50446206800F58050816972
:100D700041F480118161206800F580508069009005
:100D8000012000F0A3FC2168009801F580518861E2
:100D900038BD0000014800F029BD0000B802001075
:100DA0001079537940EA032301F1804000F52030A7
:100DB00003641178D37841EA0361937852781B0475
:100DC00043EA022211434164704770B5A4B006465D
:100DD00001258DF83C508DF83D5000240D948DF880
:100DE0004B408DF84A508DF848408DF830508DF8C2
:100DF0004C408DF83B4014948DF854401D948DF870
:100E000078401F948DF882408DF88040A8031090A0
:100E1000C01011908DF881400BA9304600F070F998
:100E20008DF80C508DF80D508DF81D508DF80E502A
:100E300005948DF81C408DF81E4008948DF82450C0
:100E40008DF804502804029080010690401204900E
:100E50008DF825500A9400946946304600F0F2F867
:100E600024B070BD0020704701F046BA10B50248AA
:100E700000F07EFF002010BDB802001013460A46A5
:100E800010B50146034800F0BDFE002801D04FF028
:100E9000FF3010BDB802001013460A4610B50146D7
:100EA000034801F0CCF8002801D04FF0FF3010BD0E
:100EB000B80200102DE9F00300F1180CDCF8103036
:100EC0001C465CF823008D680027066816F0004F6A
:100ED00003D10CEB830676691EB1BDE8F003022056
:100EE00070470126D5F80080C0F80880D0F804804B
:100EF000D5F804906FF30C0848EA0908C0F804809C
:100F000091F8008018F0010F09D0D0F80080D1F8D6
:100F1000149028F4400848EA0908C0F8008091F8C5
:100F2000008018F0200F09D0D0F80080D1F8109080
:100F300028F0406848EA0908C0F80080097811F0F4
:100F4000040F03D0016841F080010160016841F0A5
:100F500080510160BFF35F8F016841F00041016083
:100F6000A96800294DD0016821F00051016022B12B
:100F7000016841F08041016003E0016821F0804197
:100F800001605B1C042B00D31B1F5CF8230001686D
:100F900021F080510160016811F0004F03D10CEB8A
:100FA00083014969B9B15CF824100020002E0ED9E4
:100FB000BFF35F8F0A6822F000420A60641C042CB1
:100FC00000D3241F5CF82410401CB042F0D3BDE8CD
:100FD000F00302207047761CAD6829688160416883
:100FE000D5F804806FF30C0141EA080141607F1CD1
:100FF000BFF35F8F016841F000410160A9680029DB
:10100000B1D122B1016841F08041016003E0016883
:1010100021F080410160016841F0005101600CEB5A
:101020008301DCF824004861CCF8103072B6791CDA
:10103000DCF828000844CCF8280062B60020BDE89F
:10104000F003704770B505460C46286800F58050DF
:1010500081692A4A0A40217B00294BD00021637B09
:10106000890641EA4363617F002945D0002143EAB4
:101070000151A37B41EA435163691943237F41EA4C
:10108000C311A37F41EA8311236A194394F82430E2
:1010900041EA830111438161286800F58050866927
:1010A000012000F013FB286800F580508661A169DB
:1010B000A06822790843216941EA4261084394F813
:1010C000251040EAC110A16A40EA81002168084366
:1010D000296840F4000001F580510860286800F597
:1010E00080500468012000F0F1FA286800F5805073
:1010F000046070BD0121B2E70121B8E7233FDEF8AB
:1011000070B505460C46286801683D4A0A40217CB6
:10111000A368002964D0002143EAC153617C0029FF
:1011200060D0002194F81FC0890541EA0C411943A1
:1011300063690B43A17F002956D0002143EA413166
:10114000237F41EA0331A3691943237941EA8323C9
:1011500094F82010002949D0002143EA4121E37B83
:1011600041EAC311636A194394F8283041EA031134
:101170001143016028680668012000F0A7FA28687A
:101180000660286881694FF641720A40A36C216DA0
:1011900041EA034394F84C1051B300214FEAC11CBB
:1011A00094F85510012925D000214CEAC1010B43C8
:1011B00094F8561001291FD0002143EA810394F8C6
:1011C000541001291AD0002143EA410111438161E1
:1011D00028688469012000F079FA2868846170BD6C
:1011E000012199E701219DE70121A7E70121B4E74A
:1011F0000121D3E70121D8E70121DEE70121E3E75F
:101200000F8120FF2DE9F84F06464FF00009CDF879
:1012100000904FF00108B56E06EB8500846CF76E08
:10122000DFF870A044F2F85B1DE0206A30B9684630
:1012300000F050FD009830B32062A060B8F1000FBC
:1012400011D0B06D10B3C4F804B0BFF35F8F206845
:1012500040F0004020606D1C042D00D32D1F06EBD4
:101260008500846C7F1E17B1B8F1000FDDD1F06EE0
:10127000B84206D0306800F58050C0F80890B566D6
:10128000F766BDE8F88F4FF00008D7E7C4F804A070
:10129000DBE70000F8450080704770472DE9F05FFC
:1012A0000546002428684669D0F804908768D0F87D
:1012B0000CA0D0F810B0D0F8188016F0010F54D060
:1012C00017F0010F17D00121816017F0020F03D032
:1012D000284600F0F5F90EE017F0040F02D04FF4A5
:1012E000006408E017F0080F02D04FF4805402E0C9
:1012F000284600F0E4F917F4807F19D029684FF4EC
:101300008070886017F4007F03D0284600F0DAF977
:101310000EE017F4806F02D044F4005408E017F494
:10132000006F02D044F4804402E0284600F0C9F97E
:1013300017F4803F19D029684FF48030886017F483
:10134000003F03D0284600F0BFF90EE017F4802FCD
:1013500002D044F4004408E017F4002F02D044F413
:10136000803402E0284600F0AEF916F0080F07D0EE
:101370001AF0100F04D044F4007429681020C860DB
:1013800016F0040F4FF0080707D01AF0080F04D02A
:101390002868C760284600F08DF916F0020F07D0C4
:1013A0002868C06810F0030F02D0284600F083F9C7
:1013B00016F0400F07D01BF0100F04D044F48064E7
:1013C00029681020086116F0200F07D01BF0080FC5
:1013D00004D028680761284600F06EF916F0100F57
:1013E00007D02868006910F0030F02D0284600F0EB
:1013F00064F916F4003F08D019F0100F05D02968E1
:1014000010204860284600F059F916F4803F07D0B4
:1014100019F0080F04D028684760284600F055F9F5
:1014200016F4004F4AD019F0040F44D016F4807F10
:1014300004D018F0010F01D044F0010416F4007F2D
:1014400004D018F0020F01D044F0020416F4806FAB
:1014500004D018F0040F01D044F0040416F4006F17
:1014600029D018F0700F26D008F07000402815D051
:1014700006DC102809D020280AD0302816D10AE02E
:1014800050280ED0602811D10EE044F008040DE081
:1014900044F010040AE044F0200407E044F0400463
:1014A00004E044F0800401E044F480742868816919
:1014B00021F070018161296804204860002C05D06A
:1014C000686A204368622846FFF7E7FEBDE8F09FA0
:1014D00070B50446002C03D094F8200010B104E04D
:1014E000012070BD204600F0A7F82068016841F097
:1014F0000101016000F000FF0546206840684FF0E0
:10150000050610F0010F11D100F0F6FE401B0A286D
:1015100007D9606A40F40030606284F820600120DE
:1015200070BD2068406810F0010FEDD020680168A0
:1015300021F00201016000F0DFFE054620684068EE
:1015400010F0020F11D000F0D7FE401B0A2807D977
:10155000606A40F40030606284F82060012070BD51
:101560002068406810F0020FEDD1207E01283FD0A6
:101570002068016821F080010160607E01283DD073
:101580002068016821F040010160A07E01283BD065
:101590002068016821F020010160E07E012839D037
:1015A0002068016841F010010160207F012837D0D8
:1015B0002068016821F008010160607F012835D0B2
:1015C0002068016821F004010160E168A068626997
:1015D00008432169114308436168491E0843216893
:1015E000C86100206062012084F82000002070BDE6
:1015F0002068016841F080010160BEE72068016851
:1016000041F040010160C0E72068016841F020011D
:101610000160C2E72068016821F010010160C4E7A1
:101620002068016841F008010160C6E72068016890
:1016300041F004010160C8E710B586B004461421EA
:101640006846FEF78EFE18492068884229D117485F
:101650000021026842F000720260006800F0007031
:10166000059012481038026842F0010202600068DA
:1016700000F0010005904FF4C05000900220CDE929
:10168000010103200390092004906946084800F0F6
:1016900005FD00220521142000F0C6FE142000F0F4
:1016A000B5FE06B010BD00000064004040380240A6
:1016B000000002407047704770477047704770479E
:1016C00070477047704770477047704770B5044661
:1016D00000F012FE0546B4F1FF3F02D00448007846
:1016E000044400F009FE401BA042FAD370BD000084
:1016F000C840002010B500F00BF8000605D50348DF
:101700004068BDE810400AF0E5BA10BDA4400020D2
:10171000D0F88C007047002966D002681268C2F3C6
:10172000001281F828200268126802F060024A6202
:1017300002681368012222EA532381F820300368EB
:101740001B68C3F30043CB7703681B6822EA53335B
:101750008B7703681B68C3F300330B7703681B6840
:1017600003F400638B6103681B6803F480434B61DF
:1017700003681B6822EA93534B7403681B6822EAD0
:10178000D3530B7403681B68C3F3C013CB73036894
:101790001B6803F460238B6003681B68C3F380231A
:1017A0000B7103689B69C3F3400381F854300368ED
:1017B0009B6922EAD31281F84C200268926902F0F8
:1017C00030020A6502689269120C8A6402689269A2
:1017D000C2F3800281F8562000688069C0F3C0001F
:1017E00081F85500002070470120704710B504466D
:1017F000206800F58050416911F0400F08D0C169A0
:1018000011F0400F04D02F494161204600F086FAC4
:10181000206800F58050416911F0010F09D0C169BD
:1018200011F0010F05D04FF001114161204600F089
:10183000FDFB206800F58050416911F4004F24D071
:10184000C16911F4004F20D0D4F8881041F008018C
:10185000C4F88810416911F4005F0CD041691A4A3C
:101860001140C4F88C10C16921F4C031C161E0207D
:10187000C4F8840006E0426948F280610A40C4F876
:101880008C2041612046FFF735FF2068816B11F005
:10189000080F0AD0C06A00F06000C4F89400204627
:1018A00000F02CF90020C4F894000848016811F4F5
:1018B000002F05D04FF400210160204600F0BEFB50
:1018C00010BD00004000010000207E00143C0140DB
:1018D000F8B50446002C03D0D4F8840010B107E01A
:1018E0000120F8BD2320C4F88400204600F054F8FD
:1018F00000262748016841F480410160006800F437
:10190000804000902348016821F4000101600168D3
:10191000A268114301600068206800F580500168EA
:1019200041F00101016000F0E7FC0546206800F588
:101930008050006810F0010F14D000F0DDFC401B57
:10194000B0F5FA7F07D90420C4F88800E020C4F875
:1019500084000120F8BD206800F58050006810F078
:10196000010FEAD12046FFF730FA2046FFF7C8F909
:101970002046FFF785F9002120466268FFF710FA3C
:10198000C4F888601020C4F884000020F8BD00006E
:101990004438024004380140F0B587B004461421B1
:1019A0006846FEF7DEFC4D49206888427DD14C48F0
:1019B0000024016841F000710160016801F00071CC
:1019C0000591016841F080610160016801F080616A
:1019D0000591016841F000610160016801F000615A
:1019E0000591016841F480710160016801F4807122
:1019F0000591016841F004010160016801F00401F2
:101A00000591016841F001010160016801F00101E7
:101A10000591016841F080010160016801F08001D9
:101A20000591016841F040010160016801F0400149
:101A30000591016841F0020101600068022500F093
:101A4000020005904FF48060CDE9000502AA03264C
:101A50000B2782E8D0006946224800F01FFB3E2099
:101A6000CDE9000502AA694682E8D0001E4800F0D0
:101A700015FB8620CDE9000502AA694682E8D00060
:101A80001A4800F00BFBCC20CDE9000502AA6946FC
:101A900082E8D000164800F001FB4FF4D040CDE9B9
:101AA00000056946134802AA00E015E082E8D0006C
:101AB00000F0F4FAE801CDE9000502AA694682E8DF
:101AC000D0000D4800F0EAFA002205213D2000F088
:101AD000ABFC3D2000F09AFC07B0F0BD0080024056
:101AE000303802400020024000080240000002405E
:101AF000001C0240001802400004024070472DE91B
:101B0000F35F04460027B9460198002807D0D4F8AF
:101B1000840023280DD002B00120BDE8F09FD4F846
:101B2000880040F00100C4F8880002B00120BDE840
:101B3000F09FE66D04EB8600856CE06EC0F1040A50
:101B40004FF0000B3DE0286810F4807F03D0A869B7
:101B5000A067E8696067286810F4007F01D1E06F32
:101B600038B3286810F4007F03D0C4F860B0C4F81C
:101B700064B0D4F81480286810F4807F08D02868F6
:101B8000C0F30D40A0F10408286820674FF0010958
:101B9000AA682A6204F180011FFA88F3081F00F086
:101BA000C3F8206E401C2066606E40446066C5F835
:101BB00020B0761C042E00D3361F04EB8600856C03
:101BC0007F1C286810F0004F04D1574502D2B9F1AC
:101BD000000FB8D0E06E3844E06610B12046FFF741
:101BE00011FBE665B9F1010F03D002B00120BDE899
:101BF000F09F0198E16F0160C4F87CB002B0002052
:101C0000BDE8F09F2DE9F04104461E4620680369B7
:101C100003F01C034FF4784C0CEAC12119434FF434
:101C2000F86303EA8212114321F0020141F0010737
:101C3000076100F061FB054617F0010F0DD000F0C1
:101C40005BFB401BB0F5803F02D30120BDE8F08173
:101C50002068006910F0010FF1D12068406980B25E
:101C600030600020BDE8F0812DE9F047814609F1A0
:101C70001805AE6AEC6A4FF001084FF0000A15E053
:101C80000121761E05EB8400406918B9601C00F044
:101C90000304002151B1D9F80C0004EB840150F881
:101CA000310010F0004F08D04FF0000816B1B8F125
:101CB000000FE5D10020BDE8F08705EB84077869C7
:101CC00000F0BAF9C7F814A0601C00F00304AE627B
:101CD000EC62EBE71CB504460D4808F083FA0300FC
:101CE0000FD003F1200020600A4818614FF4C06152
:101CF0002068CDE900010021412208460AF06AFA75
:101D00001CBD054901200870002020601CBD00009A
:101D1000106C0108A5C80008A440002001484068D4
:101D200009F0D8BFA440002010B5002442F8204D8F
:101D30001481538104681CB10C6822600A6004E0BD
:101D40000260FBE701891944018100680028F9D18C
:101D500010BD10B5002905D0D0F88420102A03D07A
:101D6000012010BD012010BDFFF7CAF9002010BDF1
:101D700070B505462868006920F01C0400F0B4FC2A
:101D80001049114A0144914202D244F0080416E07D
:101D90000E490F4A0144914202D244F00C040EE075
:101DA0000C490D4A0144914209D30C4908440C499D
:101DB000884202D244F0040401E044F01004286890
:101DC000046170BD00D3CEFEC0E1E40040F1E9FD46
:101DD00040787D0100796CFC005A6202001F0AFA0B
:101DE00080F0FA0270B50446D4F88400102801D0BF
:101DF000012070BD2326C4F884600420E0662046DC
:101E0000FFF700FA2068016841F0080101602068CE
:101E100005680120FFF75AFC20680560206801680A
:101E200041F004010160206805680120FFF74EFCC5
:101E3000206805602046FEF795FF206800F5805079
:101E4000816941F400518161206800F58050816909
:101E500041F002018161C4F88460002070BD70B55A
:101E60000446D4F88400102801D0012070BD232539
:101E7000C4F884500120A0652068C16B41F4027150
:101E8000C1632068D0F80C1141F0600141F40031C9
:101E9000C0F80C112068D0F8101141F40311C0F8FB
:101EA00010110420E0662046FFF7ACF920680168B5
:101EB00041F008010160206806680120FFF706FC78
:101EC000206806602068016841F004010160206814
:101ED00006680120FFF7FAFB206806602046FEF73F
:101EE00041FF206800F58050816941F40051816113
:101EF000206800F58050816941F00201816120680D
:101F000000F58050C16941F0C10141F4D031C16197
:101F1000C4F88450002070BD70B50446D4F8840025
:101F2000232801D0012070BD2320C4F8840020683C
:101F300000F58050C16921F0C10121F4D031C161A7
:101F4000206800F58050816921F40051816120688A
:101F500000F58050816921F00201816120680168EB
:101F600021F004010160206805680120FFF7AEFB45
:101F7000206805602046FEF7F5FE2068016821F024
:101F800008010160206805680120FFF79FFB2068B9
:101F90000560002004EB8001896C4A6842F0004231
:101FA0004A60401C0428F5D30020A0651020C4F826
:101FB0008400002070BD10B50446002905D0D4F877
:101FC0008400232809D0012010BDD4F8880040F0F7
:101FD0000100C4F88800012010BD486BE0630122B5
:101FE0002046FEF767FF38B1D4F8880040F00200C1
:101FF000C4F88800012010BDBFF34F8FA06A401CB9
:10200000A062042801D3001FA062206800F5805060
:10201000416911F0040F06D00421416121680020BC
:1020200001F580514860002010BD00000148806823
:1020300009F050BEA44000200AF07CBB704770B588
:1020400004462068D0F810C00CF01C0C4FF4784502
:1020500005EAC12141EA0C014FF4F86C0CEA821246
:10206000114341F0020141F0010699B2416120683B
:10207000066100F041F9054616F0010F0CD000F0A2
:102080003BF9401BB0F5803F01D3012070BD2068B3
:10209000006910F0010FF2D1002070BD2DE9F84F5A
:1020A0000022DFF82C92DFF82CE2DFF82CA24FF0B0
:1020B000010B03274FF00F080BFA02FC0B6803EA31
:1020C0000C0363457AD10C7904F00304012C01D090
:1020D000022C14D18568540007FA04F6B543CE6883
:1020E00006FA04F42C438460446824EA0C0C0C794E
:1020F000C4F30014944044EA0C0CC0F804C0D1F8B6
:1021000004C037EA0C0C0CD0C4684FEA420C07FA42
:102110000CF5AC438D6805FA0CFC4CEA040CC0F8D5
:102120000CC091F804C00CF0030CBCF1020F12D1EA
:102130004FEAD20C00EB8C04256A4FEA427C4FEA4E
:10214000DC6C08FA0CF6B5430E6906FA0CFC4CEA96
:10215000050CC4F820C004684FEA420C07FA0CF5DD
:10216000AC430D7905F0030505FA0CFC4CEA040CB0
:10217000C0F800C0D1F804C01CF4403F1ED0D9F80C
:1021800000C04CF4804CC9F800C0D9F800C00CF471
:10219000804CCDF800C022F0030C0CF1804505F511
:1021A0009835D5F808C89407240F08FA04F62CEAE5
:1021B0000606704503D14FF0000C2FE067E0A0F158
:1021C000804CBCF5013C68D0A0F1804CBCF5023CD1
:1021D00066D0A0F1804CBCF5033C64D0A0F1804CEB
:1021E000BCF5043C62D0A0F1804CBCF5053C60D04D
:1021F000A0F1804CBCF5063C5ED0A0F1804CBCF553
:10220000073C5CD0A0F1804CBCF5083C5AD0A0F152
:10221000804CBCF5093C58D04FF00A0C0CFA04FC79
:102220004CEA060CC5F808C8DAF800C02CEA030C22
:102230004C6814F4801F01D04CEA030CCAF800C0AB
:10224000264CD4F800C02CEA030C4D6815F4001F8E
:1022500001D04CEA030CC4F800C0214CD4F800C0F3
:102260002CEA030C4D6815F4003F01D04CEA030C36
:10227000C4F800C01B4CD4F800C02CEA030C4D6815
:1022800015F4803F01D04CEA030CC4F800C0521C86
:10229000102AFFF411AFBDE8F88F4FF0010CBDE735
:1022A0004FF0020CBAE74FF0030CB7E74FF0040C05
:1022B000B4E74FF0050CB1E74FF0060CAEE74FF076
:1022C000070CABE74FF0080CA8E74FF0090CA5E7A7
:1022D0004438024000000240083C01400C3C0140F0
:1022E000043C0140003C0140002A01D0816170475C
:1022F0000904816170470000014880687047000050
:10230000C84000200248816802781144816070470B
:10231000C840002010B50B48016841F4007101600D
:10232000016841F480610160016841F480710160DD
:10233000032000F0ADF8002000F006F800F04AF8A5
:10234000002010BD003C024030B505461C4887B057
:102350000024016841F001010160006806A900F055
:102360000100009001A800F0A1F900F0D3F915498F
:102370004000B0FBF1F11548134A491E026040F2DB
:10238000E732C0E90324C0E90114846100F00EFDC6
:10239000040012D10D4800F038FD04000DD11920C1
:1023A00000F034F8102D07D200222946192000F041
:1023B0003BF80748056000E0012407B0204630BD27
:1023C0004438024040420F0000000140644C0020AD
:1023D000CC4000200C4882B0016841F4804101608B
:1023E000006800F4804000900748001F016841F039
:1023F000805101600068002200F0805000900F21A1
:10240000901E02B000F010B84438024000280ADBE9
:1024100000F01F01012202FA01F14009800000F1E1
:10242000E020C0F80011704710B4184B1B68C3F3CC
:102430000223C3F1070CBCF1040F01D94FF0040CC7
:102440001C1D072C01D2002300E0DB1E012404FA2E
:102450000CFCACF1010C0CEA0101994004FA03F305
:102460005B1E1A401143002806DB00F1E020090141
:1024700080F8001410BC704700F00F0000F1E0205D
:10248000090180F8141D10BC704700000CED00E03D
:1024900000F00700064A11684FF6FF03194041EAB1
:1024A000002040F0FD7040F0806010607047000038
:1024B0000CED00E0F8B51B48016841F08051016067
:1024C000006800F080500090174F01263E64FFF72F
:1024D00013FF0546154C606810F4803F0BD1FFF7E1
:1024E0000BFF401BB0F57A7F01D90320F8BD60686F
:1024F00010F4803FF3D07E64FFF7FEFE054660686F
:1025000010F4003F0BD1FFF7F7FE401BB0F57A7FC8
:1025100001D90320F8BD606810F4003FF3D000201B
:10252000F8BD00004038024000000E42007000403C
:102530002DE9F04704460D46002C13D0DFF85491E6
:10254000D9F80000EFB200F00F00A8420DD289F8D0
:102550000070D9F8000000F00F00A84205D001205B
:10256000BDE8F0870120BDE8F08720684A4E10F0F2
:10257000020F14D010F0040F03D0306840F4E05084
:102580003060207810F0080F03D0306840F46040CD
:1025900030603068A16820F0F00008433060207897
:1025A00010F0010F3ED060683C49012808D0022895
:1025B0000DD003280BD0096811F0020F28D00AE0D3
:1025C000096811F4003F06D10120BDE8F0870968D1
:1025D00011F0007F19D0316821F003010843306009
:1025E000FFF78AFE80463068616800F00C00B0EBAF
:1025F000810F17D041F2883AFFF77EFEA0EB08006A
:10260000504508D90320BDE8F0870120BDE8F087D8
:102610000120BDE8F0873068616800F00C00B0EB85
:10262000810FE9D1D9F8000000F00F00A8420AD9C3
:1026300089F80070D9F8000000F00F00A84202D01D
:102640000120BDE8F087207810F0040F05D0306835
:10265000E16820F4E05008433060207810F0080F63
:1026600006D03068216920F4604040EAC100306043
:1026700000F060F831680A4AC1F30311515CC840A8
:102680000849086008480068FFF75EFE0020BDE8C2
:10269000F0870000003C0240083802400038024049
:1026A000306D0108D4400020CC4000200F22026091
:1026B0000B4A136803F003034360136803F0F0034D
:1026C0008360136803F4E053C360126802F460424D
:1026D000D20802610348006800F00F0008607047EC
:1026E00008380240003C0240014800687047000082
:1026F000D440002000B5FFF7F7FF04490968044AF9
:10270000C1F38221515CC84000BD0000083802407E
:10271000406D010800B5FFF7E7FF04490968044A66
:10272000C1F34231515CC84000BD0000083802408E
:10273000406D010810B51748006810F00C011648EC
:1027400016D0164B042912D0082911D1144C216837
:1027500001F03F02216811F4800F0AD02068C0F315
:102760008810A0FB03010023FDF78CFD09E018464B
:1027700010BD21680023C1F38811A1FB0001FDF702
:1027800081FD2168C1F30141491C4900B0FBF1F012
:1027900010BD0000083802400024F40040787D019C
:1027A0000438024070B586B00C4615462149022314
:1027B0000322214E4FF0000C00281CD0086840F086
:1027C00004000860086800F00400009048150190BB
:1027D00002930492CDF80CC0CDF814C001A917489B
:1027E000FFF75CFC306844EAC50120F078400843FC
:1027F000306006B070BD086840F0010008600868ED
:1028000000F0010000904FF4807001900293049258
:10281000CDF80CC0CDF814C001A90948FFF73EFC63
:10282000306844EA050120F0EC600843306006B0EF
:1028300070BD0000303802400838024000080240F5
:10284000000002402DE9F84F0446002C12D02078F9
:10285000FB4E10F0010FA6F1040563D0301D016896
:1028600001F00C0104290CD0006800F00C000828CD
:1028700003D010E00120BDE8F88F306810F4800F1D
:1028800009D0286810F4003F4CD06068002849D176
:102890000120BDE8F88F6068B0F5803F14D0B0F536
:1028A000A02F16D0286820F480302860286820F4F3
:1028B00080202860606810B3FFF71EFD0746286877
:1028C00010F4003F0ED02DE0286840F480302860DE
:1028D000F0E7286840F480202860286840F48030C1
:1028E0002860E7E7FFF708FDC01B642802D9032032
:1028F000BDE8F88F286810F4003FF3D012E0FFF72E
:10290000FBFC0746286810F4003F0BD0FFF7F4FCEF
:10291000C01B642802D90320BDE8F88F286810F492
:10292000003FF3D12078C74F10F0020F4FF000099D
:1029300057D0C548016811F00C0F14D0006800F0A2
:102940000C00082803D1306810F4800F0BD0E06829
:1029500080B301203860FFF7CFFC8046286810F074
:10296000020F12D01EE0286810F0020F05D0E068B8
:10297000012802D00120BDE8F88F2868216920F0E5
:10298000F80040EAC10028602BE0FFF7B5FCA0EB9F
:102990000800022802D90320BDE8F88F286810F04B
:1029A000020FF2D02868216920F0F80040EAC10047
:1029B000286016E0FFE7C7F80090FFF79DFC80460F
:1029C000286810F0020F0CD0FFF796FCA0EB08006F
:1029D000022802D90320BDE8F88F286810F0020F02
:1029E000F2D1207810F0080F35D09848DFF860A2B7
:1029F0006169C1B101210160FFF77EFC8046DAF810
:102A0000000010F0020F26D1FFF776FCA0EB0800C3
:102A1000022802D90320BDE8F88FDAF8000010F090
:102A2000020FF1D017E0C0F80090FFF765FC804678
:102A3000DAF8000010F0020F0DD0FFF75DFCA0EBFC
:102A40000800022802D90320BDE8F88FDAF8000058
:102A500010F0020FF1D1207810F0040F71D04FF078
:102A600000087C48006810F0805F0AD1794801684E
:102A700041F080510160006800F0805000904FF0FC
:102A80000108DFF8D4B1DBF8000010F4807F1BD11F
:102A9000DBF8000040F48070CBF80000FFF72CFC5E
:102AA0008246DBF8000010F4807F0DD1FFF724FC94
:102AB000A0EB0A00022802D90320BDE8F88FDBF85A
:102AC000000010F4807FF1D0A068DFF890B10128F9
:102AD00018D005281DD0DBF8000020F00100CBF84D
:102AE0000000DBF8000020F00400CBF80000A06834
:102AF00040B3FFF701FC8246DBF8000010F0020F44
:102B000014D03EE0DBF8000040F00100CBF80000FC
:102B1000EDE7DBF8000040F00400CBF80000DBF844
:102B2000000040F00100CBF80000E0E7FFF7E4FB15
:102B3000A0EB0A0141F28830814204D90320BDE8AC
:102B4000F88F26E005E0DBF8000010F0020FEDD072
:102B500017E0FFF7D1FB8246DBF8000010F0020F10
:102B60000FD0FFF7C9FBA0EB0A0141F28830814288
:102B700002D90320BDE8F88FDBF8000010F0020F47
:102B8000EFD1B8F1010F04D13248016821F0805132
:102B90000160A069F0B32C4909684FF0FF3801F0DB
:102BA0000C01082966D0022810D0C7F86090FFF702
:102BB000A3FB0446286810F0007F2BD0FFF79CFB96
:102BC000001B022851D90320BDE8F88FC7F8609098
:102BD000FFF792FB8146286810F0007F0CD0FFF7CA
:102BE0008BFBA0EB0900022802D90320BDE8F88F77
:102BF000286810F0007FF2D1216AE069A26A0843D8
:102C0000616A08EB5202890141EA0241084394F8E3
:102C10002C1000E055E040EA016030600120386689
:102C2000FFF76AFB0446286810F0007F49D1FFF7E0
:102C300063FB001B022813D90320BDE8F88F0000B6
:102C4000043802400000474208380240800E4742E4
:102C50007438024040380240007000407038024032
:102C6000286810F0007FE2D02BE0286810F0007F89
:102C7000A4D126E0012822D03068E26900F4800166
:102C800091421AD1226A00F03F01914215D147F6D4
:102C9000C071626A0140B1EB821F0ED1A26A00F4DA
:102CA000403108EB5202B1EB024F06D194F82C10E0
:102CB00000F07060B0EB016F03D00120BDE7012090
:102CC000BBE70020B9E72DE9F04704468A46002615
:102CD000207901280DD0012727716079B04601289D
:102CE0000AD00420A060012684F804803046BDE8A4
:102CF000F0870220BDE8F0874FF0020984F80590C4
:102D0000FFF7FAFA05462068406810F0010F0ED16F
:102D1000FFF7F2FA401B022804D92068406810F03F
:102D2000010F0BD02068406810F0010FF0D0206830
:102D30008068E060CAF800006771D5E76771C4F881
:102D4000089084F804800120BDE8F08770B504463F
:102D5000002C03D06079002510B105E0012070BD82
:102D60002571204600F00CF802206071206801688F
:102D700041F00401016001206071A560002070BD78
:102D800008B500680649884208D10648016841F044
:102D900040010160006800F04000009008BD0000A4
:102DA00000080650343802407047704710B504469A
:102DB000002C03D094F83D0010B107E0012010BDB5
:102DC000002084F83C00204600F01EF8022084F821
:102DD0003D00211D206800F009FC012084F8460018
:102DE00084F83E0084F83F0084F8400084F84100F5
:102DF00084F8420084F8430084F8440084F84500D5
:102E000084F83D00002010BD704790F83D10012966
:102E100001D001207047022180F83D100168CA6886
:102E200042F00102CA600068A0F18041B1F5803132
:102E300026D0B0F1804F23D0A0F18041B1F5806160
:102E40001ED0A0F18041B1F5006119D0A0F1804100
:102E5000B1F5406114D0A0F18041B1F582310FD0BD
:102E6000A0F18041B1F5A0310AD0A0F18041B1F5C7
:102E7000C05105D0016841F0010101600020704798
:102E8000816801F007010629F8D0016841F00101CD
:102E90000160F3E7704770B50446206801694FF0A0
:102EA000000511F0020F17D0C16811F0020F13D006
:102EB000E91E0161012020772068806910F0030F6E
:102EC00003D02046FFF7E6FF05E0204600F09DF81E
:102ED000204600F09BF825772068016911F0040F67
:102EE00018D0C16811F0040F14D06FF00401016113
:102EF000022020772068806910F4407F03D02046AC
:102F0000FFF7C8FF05E0204600F07FF8204600F0FC
:102F10007DF825772068016911F0080F18D0C16885
:102F200011F0080F14D06FF0080101610420207720
:102F30002068C06910F0030F03D02046FFF7AAFFF6
:102F400005E0204600F061F8204600F05FF82577A4
:102F50002068016911F0100F18D0C16811F0100F2E
:102F600014D06FF010010161082020772068C0693B
:102F700010F4407F03D02046FFF78CFF05E0204689
:102F800000F043F8204600F041F8257720680169F9
:102F900011F0010F09D0C16811F0010F05D06FF0D9
:102FA00001010161204600F033F82068016911F049
:102FB000800F09D0C16811F0800F05D06FF080013B
:102FC00001612046FFF7F0FE2068016911F0400F13
:102FD00009D0C16811F0400F05D06FF040010161C8
:102FE000204600F01FF82068016911F0200F0BD077
:102FF000C16811F0200F07D06FF020010161204659
:10300000BDE87040FFF7D1BE70BD7047704700004B
:1030100000680349884201D1FFF774B97047000086
:1030200000000140704770B50446002C04D094F8AD
:103030003D00002510B106E0012070BD84F83C5031
:10304000204600F023F8242084F83D002068C16861
:1030500021F40051C160204600F02EFB2068016978
:1030600021F4904101612068416921F02A01416108
:103070002068C16841F40051C1602564202084F8B3
:103080003D0084F83E00002070BD000010B586B001
:10309000044614216846FDF764F913492068884204
:1030A00020D112480021026842F01002026000683C
:1030B00000F0100005900D481438026842F002023A
:1030C0000260006800F002000590C020009002201D
:1030D000CDE90101032003900720049069460448CC
:1030E000FEF7DCFF06B010BD00100140443802407E
:1030F000000402402DE9F84304460E4615461F46DB
:1031000094F83D00202802D00220BDE8F883C6B123
:10311000BDB194F83C00012816D0012084F83C0091
:103120004FF00009C4F84090212084F83D00FFF7DB
:10313000E3F88046A584E584A068B0F5805F06D0FA
:1031400007E00120BDE8F8830220BDE8F88320698C
:1031500080B13546002684F83C90E08CB8B14346F7
:10316000002280212046009700F024FB20B103209C
:10317000BDE8F8830025EEE7A5B12168287848600E
:103180006D1CE08C401EE084E08C0028E7D14346B3
:10319000002240212046009700F00CFB48B103209C
:1031A000BDE8F88330882168C0F308004860B61C89
:1031B000E7E7202084F83D000020BDE8F883FEE723
:1031C000104810B50E4901600621416000214FF4FE
:1031D00020228160C0E903124FF48012426101761F
:1031E000012242768176C17601774277FEF770F947
:1031F000002803D0BDE81040FEF74EB810BD000017
:10320000006400400C01001010B58EB01C220C4967
:103210006846FDF77FF80021684608F0B7FD094CC5
:1032200007491C2220601C3107A8FDF773F8002114
:1032300007A808F0ABFD606001F068F80EB010BDA3
:10324000D86B01089C400020F0B587B01421684677
:10325000FDF787F836480024016841F00401016059
:10326000016801F004010591016841F48071016079
:10327000016801F480710591016841F080010160ED
:10328000016801F080010591016841F001010160D0
:10329000016801F001010591016841F04001016000
:1032A000016801F040010591016841F002010160EF
:1032B0000068204E00F002000122059051033046C4
:1032C000FFF712F8002240213046FFF70DF81A4FA1
:1032D000002220213846FFF707F84FF401500090F4
:1032E0000125CDE90154694630460394FEF7D6FE28
:1032F0004FF47F40CDE90004694610480294FEF780
:10330000CDFE280200900220CDE901040394694615
:103310000B480494FEF7C2FE20200090CDE9015432
:10332000694638460394FEF7B9FE07B0F0BD0000C9
:10333000303802400008024000040240001C0240F5
:1033400000000240F0B54E4C8BB0C0202070A82089
:1033500060700025A5700720E070261DFF203070EA
:103360007070B070371DF5703D707D70BD70FD7070
:103370002946284611F042F8208841BA0A04A1786B
:1033800042EA0123E27844BA2404134344EA0124C4
:103390001B06A4B243EA042344BA40BA000440EA3C
:1033A0000120E4B243EA04231043A6F1100143EAEA
:1033B00010600860308841BA0A04B17844BA42EA21
:1033C0000123F2782404134344EA01241B06A4B227
:1033D00043EA042344BA40BA000440EA0120E4B2BC
:1033E00043EA04231043A6F10C0143EA106008608D
:1033F000388841BA0A04B97844BA42EA0123FA7813
:103400002404134344EA01241B06A4B243EA042320
:1034100044BA40BA000440EA0120E4B243EA04237B
:10342000104343EA1060A6F10801A6F10803086002
:10343000144815490095CDE901101A1F111F1348B2
:1034400007F03AFF114808F06BF9104890F82D008A
:1034500040070E4802D508F07DFA01E008F066F951
:103460000B490A4808F0B8F91C220A4903A8FCF7DE
:1034700051FF064903A808F089FC0BB0F0BD00001D
:1034800024000010D9450108755900083096002025
:10349000D5570008386C010870470000074910B57F
:1034A000054808600846FFF751FC002803D0BDE836
:1034B0001040FDF7F1BE10BD00080650544C00202E
:1034C0000C4810B50A4901604FF4E1314160002118
:1034D00081600C22C160C0E904128161C161FFF703
:1034E000A2FD002803D0BDE81040FDF7D5BE10BDF9
:1034F0000010014034010010FEE7704710B5502065
:1035000080F31188BFF34F8FBFF36F8F13F0C0F9B3
:1035100018B104494FF080500860002080F31188F2
:1035200010BD000004ED00E070B592B03021684697
:10353000FCF717FF14210CA8FCF713FF1F48002508
:10354000016841F080510160006800F080501190E6
:103550001B48016841F4404101600068022400F406
:1035600040401190032000904FF4803001900120E2
:103570000390102004908004CDE906400F260896A1
:10358000D820CDE9090408200B906846FFF75AF9C6
:10359000FEF790FF4FF4A050CDE90E50E002CDE9C8
:1035A0000C64109005210CA8FEF7C2FF0022114602
:1035B0001046FFF7F7F812B070BD00004038024027
:1035C000007000400448016841F470010160034943
:1035D0004FF000600860704788ED00E008ED00E003
:1035E0000148FFF758BC0000644C0020F0B40268AA
:1035F0002C4B2D4C2D4D2E4EDFF8B8C098420AD0E2
:10360000B0F1804F07D0A04205D0A84203D0B0420D
:1036100001D0604503D122F070024F683A439842CE
:1036200028D0B0F1804F25D0A04223D0A84221D08D
:10363000B0421FD060451DD0A0F18044B4F5A03445
:1036400018D0A0F18044B4F5A23413D0A0F1804486
:10365000B4F5A4340ED0A0F18044B4F5C05409D020
:10366000A0F18044B4F5E05404D0A0F18044B4F556
:10367000005403D122F44072CC6822434C6922F0FA
:103680008002224302608A68C2620A6882629842AB
:1036900001D0604501D10969016301214161F0BC9C
:1036A0007047000000000140000400400008004096
:1036B000000C0040000401402DE9F0410446206860
:1036C0000169E26821F44051114301612169A06858
:1036D000E26908436169114301432068C26822F42A
:1036E000037222F414421143C16020684169A26947
:1036F00021F44071114341612068A0F18041B1F58E
:1037000088312ED0A0F18041B1F58A3129D0FEF761
:10371000F1FF8446E16900201927254D3226B1F5D5
:10372000004F22D06068830F8200ACFB0701FCF7DA
:10373000A9FD0146A5FB002040097A42424301EB66
:10374000820106EB0111A5FB0121490901F0F002FC
:1037500002EB001001F00F01084421688860BDE809
:10376000F081FEF7D7FF8446D4E761684A1840EB42
:103770000003ACFB0701FCF785FD0346A5FB001029
:10378000410918460A016FF01803594300EB810004
:1037900006EBC000A5FB0010400900F0F80102EBA9
:1037A000410100F00700084421688860BDE8F0810D
:1037B0001F85EB512DE9F0410446069D88461646CB
:1037C0001F462068006838EA00002AD00020B04276
:1037D00031D1B5F1FF3F26D025B1FEF78DFDC01BDD
:1037E000A84220D920680C3050E8001F21F4D07185
:1037F00040E80012002AF5D12068143050E8001F7C
:1038000021F0010140E80012002AF5D1202084F8BF
:103810003D0084F83E00002084F83C000320BDE811
:10382000F0810120D3E72068006838EA000005D065
:103830000020B042CDD00020BDE8F0810120F8E7A3
:10384000FEE700000FB4054B10B503A9044A029827
:1038500000F0F2F810BC5DF814FB00004D5A0008AF
:10386000484100200FB4084B10B504A902AA0398E0
:1038700000F0E2F8044602A9002000F060FC2046B7
:1038800010BC5DF814FB00003F4100080048704781
:103890004C41002002E008C8121F08C1002AFAD1DA
:1038A00070477047002001E001C1121F002AFBD1C0
:1038B000704700002DE9FF5F82B00021DDE9043090
:1038C000020DDDF840B0034318D044F61050A2F2C8
:1038D000FF3242431514119801281FD0A5EB0B00AD
:1038E000401C5FEA000A4FF000064E4FDFF83891A7
:1038F000B046504615D5CAF1000413E011980124D2
:103900004AA3012801D16FEA0B010298119AC0E97C
:103910000031C0E9024206B0BDE8F09FCBF10000E3
:10392000DFE704460021404A491842EB0450CDE944
:10393000001012E0E00707D032463B4640464946B9
:10394000FCF7E8FE8046894632463B46104619465B
:10395000FCF7E0FE06460F466410002CEAD1DDE9D4
:103960000401DDE90023BAF1000F06DAFCF7D2FE0C
:1039700042464B46FCF7CEFE05E0FCF73DFF4246D3
:103980004B46FCF739FF04460E460022284BFCF755
:10399000BBFF03D84FF0FF30014607E00022254B64
:1039A00020463146FCF70FFEFCF795FF102409E096
:1039B000002C0ADB0A220023FCF764FC039B303254
:1039C0001A55641E50EA0102F2D1641C039AC4F134
:1039D00011031444119A012A03D0012208430DD186
:1039E0000AE0084304D000204FF0110B119072E759
:1039F000A3EB0B056D1E0DE05B4504DD4FF00002EF
:103A000005F1010504E003DA4FF00002A5F101051C
:103A1000002AECD002981199C0E90231C0E90045B2
:103A200079E70000000014400000F03F3000000083
:103A30000000F0430000E03F2DE9FF4F95B09A46AB
:103A4000884606460025EEE1252877D10024274642
:103A5000F94A0121039400E0044316F8013F203B9A
:103A600001FA03F01042F7D130782A2811D06FF014
:103A70002F033078A0F13002092A16D8039A44F0B7
:103A8000020402EB820203EB42021044761C039014
:103A9000EFE758F8042B0392002A03DA504244F46B
:103AA0000054039044F00204761C30782E2816D17E
:103AB00016F8010F44F004042A280DD06FF02F02ED
:103AC0003078A0F13003092B09D807EB870302EB0C
:103AD0004303C718761CF3E758F8047B761C30784C
:103AE0006C280FD006DC4C2817D068280DD06A2827
:103AF00014D104E0742810D07A280FD10DE044F4DA
:103B000000140AE044F4801401E044F44014727894
:103B1000824202D104F58014761C761C3078662827
:103B20000BD013DC582877D009DC002875D0452845
:103B3000F6D04628F4D047281AD193E118E063283C
:103B400035D0642879D0652812D18BE1702873D0E4
:103B500008DC6728F1D069286FD06E280DD06F2857
:103B600006D1ACE073282CD0752874D0782853D0B7
:103B70005246179990476D1C54E1C4F30250022835
:103B800009D003280DD0D8F8001004280DD00D60FE
:103B900008F1040846E1D8F80010EA17C1E900521C
:103BA000F6E7D8F800100D80F2E70D70F0E718F88E
:103BB000041B8DF8001000208DF80100EB46012059
:103BC00003E058F804BB4FF0FF3061074FF00001ED
:103BD00002D40DE009F101018946B9420FDA8145AD
:103BE000F8DB1BF809100029F4D108E009F1010104
:103BF00089468142FADB1BF809100029F6D10398A7
:103C00005346A0EB090721463846179A00F080FA80
:103C1000284400EB090507E044E008E10DE01BF84B
:103C2000010B524617999047B9F10109F7D2534653
:103C300021463846179AF2E039E00A21C4F30252CD
:103C40004FF0000B0091022A06D058F8040BC11760
:103C5000032A09D00AE023E008F1070020F0070258
:103C6000F2E80201904605E000B2C117042A01D132
:103C700040B2C117002906DA0A460021404261EB32
:103C800002012D2202E0220504D52B228DF804200A
:103C9000012203E0E20701D02022F7E7914657E036
:103CA0000A2100E010214FF0000B00910BE01021E1
:103CB0004FF0000B44F004040827009103E00820B3
:103CC0004FF0000B0090C4F30252022A05D058F8BE
:103CD000040B0021032A08D008E008F1070020F0B7
:103CE0000702F2E80201904603E080B2042A00D104
:103CF000C0B24FF0000922072AD53278702A07D0C7
:103D0000DDF800C08CF0100C5CEA0B0C05D00EE066
:103D100040228DF80420012208E050EA010306D079
:103D200030238DF804308DF8052002229146009B47
:103D300083F0080353EA0B030AD150EA010201D1D0
:103D4000620705D530228DF804204FF001097F1E4F
:103D50003278582A04D039A20C920CAA02920BE0B5
:103D60003BA2F9E75B46009AFCF78CFA0C9B9B5C44
:103D7000029A521E0292137050EA0102F2D1029886
:103D800004A9081A00F1200B600702D524F480343E
:103D900000E001275F4502DDA7EB0B0000E00020FB
:103DA00000EB0B01009003984944401A0390E00394
:103DB00006D453462146179A039800F0A9F9054402
:103DC000002706E001A85246C05D179990476D1C78
:103DD0007F1C4F45F6DBE0030CD553462146179A6E
:103DE000039800F095F9054404E0302052461799F5
:103DF00090476D1C0099481E00900029F5DC08E0F2
:103E00000298029952460078491C029117999047EE
:103E10006D1CBBF10001ABF1010BF1DC5BE100F0CB
:103E200065F90544761C307800287FF40DAE19B092
:103E30002846BDE8F08F00000928010030313233F8
:103E400034353637383961626364656600000000D6
:103E500030313233343536373839414243444546C0
:103E600000000000600700D4062708F1070020F0DA
:103E70000700F0E80223804603F0004C5FEA0C00E4
:103E800001D097A009E0200501D596A005E0E00744
:103E900001D095A001E0AFF24C001390307823F0F0
:103EA000004365280CD006DC452809D046281DD0E3
:103EB00047287FD13BE0662818D067287AD136E0C2
:103EC0000021112F01DB112000E0781CCDE9000159
:103ED00004A90CA8FFF7EEFCDDE90D010C9A4FF0E8
:103EE000000B07F10109109200914EE04FF00040E5
:103EF0000097CDE9011004A90CA8FFF7DBFCDDE970
:103F00000D020C9B0F994FF0000B914610930092FD
:103F100011B9791C00EB0109B7EB090003D4C0F11A
:103F2000FF3B07F10109A9EB0700019042E0012FD7
:103F300000DA01270021112F01DD112000E03846B1
:103F4000CDE9000104A90CA8FFF7B4FCDDE90D01DF
:103F50000C9A00914FF0000BB946109221070FD434
:103F6000009A4A4503DA914601E0A9F10109B9F145
:103F7000010F05DD109AA9F10101515C3029F4D03F
:103F8000B84202DA10F1040F03DA0121CDE9011081
:103F900010E0002803DC8344A9EB000102E0411C8F
:103FA000494500DD8946A0EB0B00401C01904FF015
:103FB00000400290200705D40198484502DB4FF0ED
:103FC000FF30019000208DF84B0002980DF14B0757
:103FD000B0F1004F25D002200C902B200D900298BC
:103FE00000280CDA404202902D200D9007E00A21B3
:103FF0000298FCF764FA3031029007F8011D0C9921
:10400000481E0C900029F2DC02980028EFD1791E9E
:104010000D980870307800F0200040F0450007F857
:10402000020D11A8C01BC01D02901398007800B1AA
:10403000012000EB0901019801EBE07102980144B5
:104040000398401A401E0390E00306D453462146CD
:10405000179A039800F05CF805441398007818B19B
:104060005246179990476D1CE00323D553462146CD
:10407000179A039800F04CF805441BE0BBF1000FC1
:1040800007DB0098584504DD1098179910F80B00CD
:1040900001E0179930205246904701980BF1010B2F
:1040A000401E05F10105019004D12E2052461799BA
:1040B00090476D1CB9F10001A9F10109DEDC05E0B2
:1040C00017F8010B5246179990476D1C0299481E2C
:1040D00002900029F4DC53462146179A03989EE685
:1040E0002D0000002B000000200000002DE9F04111
:1040F000044600251E461746880404D405E03946C8
:104100002020B0476D1C641EF9D52846BDE8F0811B
:104110002DE9F041044600251E469046C80301D50E
:10412000302700E02027880404D505E041463846C2
:10413000B0476D1C641EF9D52846BDE8F0810A68B9
:10414000531C0B601070704770B504460E46154640
:10415000002C48D004F1140009F09AFE002845D044
:10416000002E46D0002D06D039A340F22A2245A1C8
:104170004EA0FFF767FB2078616A06F0C9F9054693
:10418000002D49D06E60284609F086FD294604F1CD
:10419000140009F072FE002851D06C6800212046FE
:1041A0000AF068F9002120460EF056F8002120465A
:1041B0000EF0EAFD0022114620460CF06DFF0021B2
:1041C00020460AF0FDFD0020686005F1100009F0AE
:1041D0002DFE05F1100009F04DFE284606F072FB99
:1041E0004FF0FF3070BD6FF0050070BD6FF005003F
:1041F00070BD6FF00C0003F047FF014604F114009E
:1042000009F03BFE28B9636A1BB100221146204623
:1042100098476FF0050070BD6FF00C0003F034FF9D
:10422000014604F1140009F028FE28B9636A1BB1A5
:1042300000221146204698474FF0FF3070BD636A58
:104240001BB10022114620469847002070BD000097
:104250002E2E2F4D6964646C6577617265732F54DF
:10426000686972645F50617274792F4C7749502F7E
:104270007372632F6170692F6170695F6D73672E50
:1042800063000000657870656374206E6577706305
:1042900062203D3D204E554C4C206F72206572725D
:1042A000203D3D204552525F4F4B000041737365E6
:1042B0007274696F6E2022257322206661696C65B5
:1042C00064206174206C696E6520256420696E200D
:1042D00025730A0007F09DFB014603A0FFF7B2FA21
:1042E000642007F089FBF5E77061676520312020C5
:1042F0002074332E7478743D2252756E6E696E6729
:10430000436F756E743A2564220D0A0000B587B0BC
:104310001C2206496846FBF7FDFF0021684607F0AE
:1043200035FD0349086007B000BD0000546C01086A
:10433000C44000207CB50446002540211A48019560
:10434000FCF70FF8184816214030FCF70AF8164819
:1043500040215630FCF705F8204614A1FCF718F868
:10436000040005D013340D212046FCF72FF8051B5F
:1043700021462A460C48FCF71DF811A10A48FBF714
:10438000FBFF094A3C214032074805F049F9064B3A
:1043900014204033009001AA402103F1160003F0DD
:1043A00041FF014856307CBD684900205365632DAC
:1043B000576562536F636B65742D4B65793A2000C6
:1043C00032353845414641352D453931342D343764
:1043D00044412D393543412D433541423044433822
:1043E00035423131000000000021002808D0C07A99
:1043F000401C022804D2034A52F8200000B10121D7
:1044000008467047A40000102DE9F05F07468B4670
:104410000025DFF8808007EB0710A8F5886AA94619
:104420000AEB001405EB450658F826305BB108EBA3
:104430008600017AB94206D1426804F1100059465B
:10444000984748F82690681CC5B2042DEAD300218D
:104450000425B9420CD001EB01100AEB0010827A5E
:10446000022A05D1C07BE27B904201D1E57303E0D3
:10447000481CC1B20429ECD3E07B042808D2064EC4
:1044800056F8200010F056FDE07B46F82090E573CA
:10449000BDE8F09FE4130120940F012010B5002423
:1044A000204600F005F8601CC4B2042CF8D310BDFF
:1044B0002DE9F04105462D4905EB051001EB0014EF
:1044C000042D06D32AA340F21C4235A13BA0FFF7DE
:1044D000B9F9A07A00283ED00026012701280CD087
:1044E000022817D0032838D0BDE8F04120A340F2BD
:1044F0005B423CA131A0FFF7A5B900F083F8208111
:104500000220A072E672277366732846BDE8F04168
:1045100000F092B8207B401E10F0FF0020731AD1EB
:10452000607B401CC0B26073042805D0207328460D
:10453000BDE8F04100F080B82046FFF755FF28B1F4
:10454000E07A401CE07227736673F0E7002128468A
:10455000FFF75AFFA672BDE8F081206810B1401E37
:104560002060F8D1A672BDE8F0810000A40F012000
:104570002E2E2F4D6964646C6577617265732F54BC
:10458000686972645F50617274792F4C7749502F5B
:104590007372632F636F72652F646E732E630000F6
:1045A000617272617920696E646578206F7574201C
:1045B0006F6620626F756E647300000041737365EF
:1045C0007274696F6E2022257322206661696C65A2
:1045D00064206174206C696E6520256420696E20FA
:1045E00025730A00756E6B6E6F776E20646E735F55
:1045F0007461626C6520656E747279207374617485
:10460000653A000010B50A4CFBF772FE80B200213B
:1046100001EB011204EB0212937A022B02D11289F0
:104620008242F1D0491CC9B20429F1D310BD000067
:10463000A40F0120704700002DE9F04F85B0064619
:104640004C4906EB061001EB0015E87A022806D368
:1046500049A340F2FA2254A159A0FFF7F3F8EA7AED
:104660006149002451F8220050B305F11000FBF716
:10467000B7FE123081B24FF42072362007F020FCD2
:1046800081465FEA09006FD002940394049428895C
:1046900002F0A0FEADF8080001208DF80A004FF4EA
:1046A000807BADF80CB00C2202A9484608F0DEFA77
:1046B00005F11000441E0C26641C274600220BE066
:1046C00000213046FFF7A0FEAC7205B00020BDE827
:1046D000F08F501CC2B2641C20782E2801D0002814
:1046E000F7D1E01B1FFA80FAB01800F10108B8F505
:1046F000803F07D3484608F01DF805B06FF005006D
:10470000BDE8F08F3146484608F038F9701C83B296
:1047100052463946484608F06DFB1FFA88F6207865
:104720000028C9D100223146484608F027F9701CFC
:1047300083B2ADF804B0ADF806B0042201A9484632
:1047400008F058FBE87B3523EA7A274901EB82021F
:10475000264951F82000494610F046FC04464846D8
:1047600007F0E8FF02E0FFE74FF0FF3405B0204616
:10477000BDE8F08FA40F01202E2E2F4D6964646CCC
:104780006577617265732F54686972645F506172F6
:1047900074792F4C7749502F7372632F636F726552
:1047A0002F646E732E630000646E732073657276DF
:1047B0006572206F7574206F662061727261790076
:1047C000417373657274696F6E20222573222066AF
:1047D00061696C6564206174206C696E6520256474
:1047E00020696E2025730A00A4000010940F012098
:1047F000FFF754BE70B505460C4614F0030F06D003
:1048000008A34FF4B67213A11AA0FFF71BF809F022
:10481000B1FAA96809682160A9680C60BDE8704018
:1048200009F0D2BA2E2E2F4D6964646C65776172DF
:1048300065732F54686972645F50617274792F4C8C
:104840007749502F7372632F636F72652F6D656D9B
:10485000702E63006D656D705F667265653A206DE0
:10486000656D2070726F7065726C7920616C69671C
:104870006E656400417373657274696F6E202225E2
:104880007322206661696C6564206174206C696EB6
:104890006520256420696E2025730A0070B50446E2
:1048A00009F068FA0546A0680468002C10D0216859
:1048B000016014F0030F06D008A34FF48C7213A10B
:1048C0001BA0FEF7BFFF284609F07EFA204670BD08
:1048D000284609F079FA002070BD00002E2E2F4DD9
:1048E0006964646C6577617265732F54686972647A
:1048F0005F50617274792F4C7749502F7372632F18
:10490000636F72652F6D656D702E63006D656D70E0
:104910005F6D616C6C6F633A206D656D70207072B5
:104920006F7065726C7920616C69676E65640000F8
:10493000417373657274696F6E202225732220663D
:1049400061696C6564206174206C696E6520256402
:1049500020696E2025730A002DE9F04104460E46B9
:10496000002C06D13FA34FF4DC724BA14EA0FEF702
:1049700069FF09F0FFF9002767602672217F41F087
:10498000010121776578677009F01EFA636A1BB12F
:104990000022042120469847636A1BB10022114679
:1049A00020469847636A1BB100220221204698479F
:1049B000304603F069FB804604F1100009F068FA04
:1049C00020B1414604F1100009F057FA04F1140037
:1049D00009F05EFA20B1414604F1140009F04DFAE5
:1049E000012D0FD0042D0DD0032D0BD0206A0028EF
:1049F00036D0BDE8F0411BA340F2F71234A12AA043
:104A0000FEF720BF207FC0F3800100F0FB0020777D
:104A1000002925D1206A30B912A34FF4F37233A1D3
:104A200021A0FEF70FFF042D0AD0206A0671206A2C
:104A3000006800F10C05284609F06FFA18B109E08A
:104A4000206A0771F3E707A340F2EF122EA116A028
:104A5000FEF7F8FE27622846BDE8F04109F05ABA91
:104A6000BDE8F0812E2E2F4D6964646C657761720C
:104A700065732F54686972645F50617274792F4C4A
:104A80007749502F7372632F6170692F6170695F6E
:104A90006D73672E63000000636F6E6E20213D20F2
:104AA0004E554C4C00000000417373657274696F81
:104AB0006E2022257322206661696C656420617412
:104AC000206C696E6520256420696E2025730A00BC
:104AD000636F6E6E2D3E63757272656E745F6D737B
:104AE00067203D3D204E554C4C000000636F6E6EBC
:104AF0002D3E63757272656E745F6D736720213D24
:104B0000204E554C4C000000696E61766C69642043
:104B10006F705F636F6D706C657465645F73656DF6
:104B20000000000070B505460024084E04EB440068
:104B300006EBC000017D29B18068A84202D1204661
:104B400000F046F9641C0A2CF0DB70BDF807001079
:104B50002DE9F74F86B0804691464FF00A0BDA46B2
:104B60000A2700240A20049000200390029001905C
:104B7000584904EB440001EBC0060590357D0A2F2F
:104B800001D1002D1ED0002D28D0012D08D0022DDE
:104B900006D251A340F223125DA16DA0FEF752FE92
:104BA000B8F1000F10D0D8F80000716888420BD11E
:104BB000B9F1000F02D0B068484505D109B02046D0
:104BC000BDE8F08F274609E0012D10D0022D05D356
:104BD000708A0199884201D3A2460190601C04B2F8
:104BE0000A2CC5DB079810F0020F1DD112E03948DE
:104BF000059950F8310030B1708A03998842EDD39D
:104C000004940390EAE7708A02998842E6D3A346A7
:104C10000290E3E70A2F03D1079810F0010F03D0A9
:104C20000A2F06DA3C462BE009B04FF0FF30BDE812
:104C3000F08FBAF10A0F0EDA5446264804EB44010D
:104C400050F8310080B124A340F26D124AA140A077
:104C5000FEF7F8FD08E0BBF10A0F01DA5C4603E05D
:104C600004980A2831DA049C0A2C06DB1AA340F2C5
:104C70007F1247A136A0FEF7E5FD204600F0A8F818
:104C80000A2C06DB14A340F2831241A130A0FEF7E8
:104C9000D9FD104804EB440100EBC105287D30B17B
:104CA0000DA34FF4C2723FA129A0FEF7CBFDB8F1CE
:104CB000000F02D0D8F80000686000206882C5F8B4
:104CC000089009B02046BDE8F08F09B04FF0FF30E2
:104CD000BDE8F08FF80700102E2E2F4D6964646C2C
:104CE0006577617265732F54686972645F50617291
:104CF00074792F4C7749502F7372632F636F7265ED
:104D00002F697076342F6574686172702E630000AD
:104D10007374617465203D3D204554484152505F95
:104D200053544154455F50454E44494E47207C7C86
:104D3000207374617465203E3D20455448415250B3
:104D40005F53544154455F535441424C4500000069
:104D5000417373657274696F6E2022257322206619
:104D600061696C6564206174206C696E65202564DE
:104D700020696E2025730A006172705F7461626C35
:104D8000655B695D2E71203D3D204E554C4C000009
:104D900069203C204152505F5441424C455F534989
:104DA0005A4500006172705F7461626C655B695D99
:104DB0002E7374617465203D3D2045544841525026
:104DC0005F53544154455F454D5054590000000015
:104DD00070B5084D00EB4004002655F8340000285B
:104DE00003D007F0A7FC45F8346005EBC400067556
:104DF00070BD0000F8070010F0B587B007460D46FB
:104E0000002D05D07C682088B0F5807F12D108E0A5
:104E100023A340F28A2230A133A0FEF713FD07B08E
:104E2000F0BD2079062805D16079042802D1608878
:104E3000082804D0384607F07DFC07B0F0BDD4F850
:104E40000E000690A0690590696819B1884203D1E7
:104E5000012602E0002600E000260EB1012300E05A
:104E6000022304F1080206A9284600F0CDFBE088E1
:104E7000B0F5807F0ED16EB12B1D022006A90093E4
:104E800004F1080202910390223301921946284648
:104E900000F0B0FA384607F04DFC07B0F0BD000056
:104EA0002E2E2F4D6964646C6577617265732F5483
:104EB000686972645F50617274792F4C7749502F22
:104EC0007372632F636F72652F697076342F657408
:104ED000686172702E6300006E6574696620213D02
:104EE000204E554C4C000000417373657274696F1D
:104EF0006E2022257322206661696C6564206174CE
:104F0000206C696E6520256420696E2025730A0077
:104F100070B584B004460E461546002C06D14CA34D
:104F200040F21E3258A15CA0FEF78CFC36B948A3B3
:104F300040F21F3262A158A0FEF784FC280006D17F
:104F400043A34FF4487261A153A0FEF77BFC2146B6
:104F5000286801F0B3F808B1604B44E0286800F01D
:104F6000F001E0292AD0A168636800EA0102194033
:104F70008A4208D080B2A0F57E41A93903D0E0680A
:104F8000E0B304F10C05564B56491A7802EB420087
:104F900001EBC00090F814C0BCF1020F33D3D0F87D
:104FA00008C0A4452FD1D5F800C0406884452AD157
:104FB0003146204600F098F804B070BD01208DF80D
:104FC000080000208DF809005E208DF80A0068783E
:104FD00000F07F008DF80B00A8788DF80C00E878C1
:104FE0008DF80D0002AB4FF40060009004F1260232
:104FF0003146204600F044FC04B070BDFFE704B029
:105000006FF0030070BD002202EB420001EBC00014
:1050100090F814C0BCF1020F0FD3D0F808C0A4451B
:105020000BD1D5F800C04068844506D11A703146CE
:10503000204600F059F804B070BD501CC2B20A2AD4
:10504000E2D332462946204600F0D0F804B070BDC5
:105050002E2E2F4D6964646C6577617265732F54D1
:10506000686972645F50617274792F4C7749502F70
:105070007372632F636F72652F697076342F657456
:10508000686172702E6300006E6574696620213D50
:10509000204E554C4C000000417373657274696F6B
:1050A0006E2022257322206661696C65642061741C
:1050B000206C696E6520256420696E2025730A00C6
:1050C0007120213D204E554C4C00000069706164F8
:1050D000647220213D204E554C4C0000486D010863
:1050E00000010010F8070010F8B505460E461A48F2
:1050F00002EB420100EBC104207D022806D217A377
:1051000040F2EE2223A12FA0FEF79CFB207D022877
:1051100016D1618A0327B1F58E7F06D9211D284655
:1051200000F026FA60B927750AE0B1F5877F07D34A
:1051300004F10C02211D284600F020FA00B9277561
:105140004FF40060009004F10C0305F12602314693
:10515000284600F095FBF8BDF80700102E2E2F4DC5
:105160006964646C6577617265732F5468697264F1
:105170005F50617274792F4C7749502F7372632F8F
:10518000636F72652F697076342F65746861727011
:105190002E6300006172705F7461626C655B6172A6
:1051A000705F6964785D2E7374617465203E3D2084
:1051B0004554484152505F53544154455F53544104
:1051C000424C4500417373657274696F6E202225ED
:1051D0007322206661696C6564206174206C696E5D
:1051E0006520256420696E2025730A002DE9F04FA3
:1051F00083B082460F4616460AF1260002904FF011
:10520000FF344FF000085146386800F057FF90B95E
:10521000386800F0F001E0290DD067B158B152466E
:1052200001213846FFF794FC0546002D08DA03B04B
:1052300068B2BDE8F08F03B06FF00F00BDE8F08FEB
:105240007F2D06D33CA340F2C13249A14CA0FEF70A
:10525000F9FA05F0FF0B54480BEB4B0900EBC905BD
:10526000297D29B94FF0010801212975C5F808A049
:10527000287D012808D0022806D22FA340F2CD3283
:105280004AA13FA0FEF7DEFAB8F1000F00D12EB917
:105290003946504600F06CF9044696B1287D424FDD
:1052A000022812D34B4880F800B04FF40060009001
:1052B00005F10C0331465046029A00F0E1FA04462B
:1052C00035E003B02046BDE8F08F01282FD100253E
:1052D000344660892189884208D1206830B116A3FC
:1052E00040F2F1323CA126A0FEF7ACFA207B10F090
:1052F000400F01D0012502E02468002CE9D13DB126
:1053000032464FF420710E2007F036F8064602E0D0
:10531000304607F0DFFB46B157F8390008B107F017
:1053200009FA47F83960002401E04FF0FF3403B078
:105330002046BDE8F08F00002E2E2F4D6964646C6E
:105340006577617265732F54686972645F5061722A
:1053500074792F4C7749502F7372632F636F726586
:105360002F697076342F6574686172702E63000047
:1053700074797065206F766572666C6F77000000D7
:10538000417373657274696F6E20222573222066E3
:1053900061696C6564206174206C696E65202564A8
:1053A00020696E2025730A00F80700106172705F93
:1053B0007461626C655B695D2E7374617465203D18
:1053C0003D2050454E44494E47206F722053544172
:1053D000424C4500000100106E6F207061636B65E8
:1053E000742071756575657320616C6C6F77656489
:1053F000210000002DE9FF4F81B00646DDF8409006
:10540000DDF83C800E9F9A464FF0000B002E06D12F
:105410002DA340F257423AA13DA0FEF713FA4FF4F4
:1054200020721C210E2006F04BFD0546280045D0B9
:1054300068891C2806D224A340F262423EA134A00F
:10544000FEF700FA6C68119801F0C4FFE08096F84E
:105450002C00062806D01CA340F2694243492CA028
:10546000FEF7F0F9DAF80000A060BAF80400A081B5
:10547000D8F80000C4F81200B8F80400E0823868D8
:10548000C4F80E00D9F80000A0614FF480702080AD
:1054900008206080062020710420607140F606001C
:1054A000009029463046039B029A00F0E9F928460D
:1054B00007F040F905B05846BDE8F08F05B04FF051
:1054C000FF30BDE8F08F00002E2E2F4D6964646C14
:1054D0006577617265732F54686972645F50617299
:1054E00074792F4C7749502F7372632F636F7265F5
:1054F0002F697076342F6574686172702E630000B6
:105500006E6574696620213D204E554C4C000000AC
:10551000417373657274696F6E2022257322206651
:1055200061696C6564206174206C696E6520256416
:1055300020696E2025730A00636865636B207468B8
:10554000617420666972737420706275662063618D
:105550006E20686F6C642073747275637420657458
:10556000686172705F686472000000002C7101084D
:10557000014A00F003B80000486D010810B584B07E
:1055800001230393DFF818C0041D029100F12603E4
:10559000CDF804C000941946FFF72CFF04B010BDED
:1055A0004E6D01082DE9F04100240426154D022717
:1055B00004EB440005EBC002117DE9B1508A401CA8
:1055C00080B25082B0F5967F03D2012905D105281B
:1055D00003D32046FFF7FCFB0EE0032904D0042987
:1055E00004D0012904D007E0167505E0177503E023
:1055F000111D9068FFF7BCFF641C0A2CD8DBBDE8C6
:10560000F0810000F8070010F8B504460D46164674
:105610001F4694F82C00062806D020A340F2A912B9
:105620002CA135A0FEF70EF99DB1286888B121465E
:1056300000F044FD68B9287800F0F000E02808D0B8
:10564000224639462846FFF783FA002804DA40B29A
:10565000F8BD6FF00F00F8BD314A00EB400102EBDE
:10566000C1000223037584603368C360B38803827A
:105670000023438252F8315075B142F831304FF473
:1056800000600090334604F126022946204600F0CF
:10569000F7F8284607F04EF80020F8BD2E2E2F4DC3
:1056A0006964646C6577617265732F5468697264AC
:1056B0005F50617274792F4C7749502F7372632F4A
:1056C000636F72652F697076342F657468617270CC
:1056D0002E6300006E657469662D3E6877616464B0
:1056E000725F6C656E203D3D204554485F485741D0
:1056F0004444525F4C454E00417373657274696F48
:105700006E2022257322206661696C6564206174B5
:10571000206C696E6520256420696E2025730A005F
:10572000F80700102DE9F04104460D460E27608968
:105730000E2840D9E07B18B995F83000401CE07382
:1057400060688689017811F0010F15D0012905D014
:1057500006221F49FAF74BFE50B10DE0417859B9C6
:1057600080785E2808D1607B40F01000607303E011
:10577000607B40F008006073082E03D0B6F5C16F5F
:1057800019D10EE095F82D0010F0080F13D039460E
:10579000204607F0EDF970B92946204600F002FED8
:1057A00013E095F82D0010F0080F04D0394620467C
:1057B00007F0DEF928B1204606F0BCFF0020BDE866
:1057C000F08129462046FFF717FB0020BDE8F08155
:1057D000486D0108704700009AB00746642168468A
:1057E000FAF7BFFD0026354634464FF480484FF4A3
:1057F00000692248FBF762F997F82D1049070CD58C
:1058000001282BDC1D48E838FCF786FB384605F0FC
:105810008DFF384605F0E4FF20E001281EDD022858
:1058200020D0032820D0042821D0052821D0AEB1D3
:1058300012486946E838FBF76EFF1048CDE9055479
:105840006946E838FCF785FA0C48E838FCF7CAFAEC
:10585000384606F07FF8384606F01AF8642006F05D
:10586000CBF8C6E74C4600E00024454603E04C4632
:1058700000E0002400250126DAE70000A003001064
:105880002DE9F04106460F4615461C46069801F0E4
:10589000A1FD80460E21384606F0A6FA18B16FF039
:1058A0000100BDE8F0817868A0F80C8021680160F3
:1058B000A18881802968C0F80610A988418196F8DE
:1058C0002C00062806D006A34FF4997212A11FA03F
:1058D000FDF7B8FF39463046B269BDE8F0411047E0
:1058E0002E2E2F4D6964646C6577617265732F5439
:1058F000686972645F50617274792F4C7749502FD8
:105900007372632F6E657469662F65746865726E55
:1059100065742E63000000006E657469662D3E6834
:1059200077616464725F6C656E206D75737420625C
:1059300065203620666F722065746865726E6574C6
:105940005F6F75747075742100000000417373659A
:105950007274696F6E2022257322206661696C65FE
:1059600064206174206C696E6520256420696E2056
:1059700025730A0010B5040006D10BA340F2DF1214
:1059800010A114A0FDF75EFF732084F82E00742090
:1059900084F82F00194860611948A061204601F081
:1059A000DFFB002010BD00002E2E2F4C5749502F3A
:1059B0005461726765742F65746865726E65746989
:1059C000662E63006E6574696620213D204E554C3D
:1059D0004C000000417373657274696F6E2022255C
:1059E0007322206661696C6564206174206C696E45
:1059F0006520256420696E2025730A00114F000878
:105A0000E572000808B50F4D04464FF0FF38002737
:105A10004146686806F086F90028F9D10097287891
:105A200018B969460848FCF76AF8009E002EEFD0C6
:105A300022692146304690470028EFD0304606F0D4
:105A400079FEEBE7A4400020B802001013B50A234A
:105A5000012269460248FDF74DFB00981CBD00007D
:105A6000340100102DE9F04116460D46441C022277
:105A700012A1FAF7DDFC00B911A4A046002411E040
:105A8000A86804EBC40100EBC10739464046FAF7A9
:105A90007FFC30B1786C30602868396C40180AD1CE
:105AA00003E0641C6868A042EAD8084CA068FAF7D2
:105AB00097FC3060A068BDE8F08100002F20000056
:105AC000696E6465782E68746D6C000000000010CB
:105AD00002680121136843605B1E13F1020F02D2BA
